:100000000C9462000C948A000C948A000C948A0070
:100010000C948A000C948A000C948A000C948A0038
:100020000C948A000C948A000C948A000C948A0028
:100030000C948A000C948A000C948A000C948A0018
:100040000C94E5000C948A000C9419030C945C0346
:100050000C948A000C948A000C948A000C948A00F8
:100060000C948A000C948A00000000070002010032
:100070000003040600000000000000000102040864
:100080001020408001020408102001020408102002
:10009000040404040404040402020202020203032E
:1000A00003030303000000002300260029000000D2
:1000B0000000250028002B0000000000240027007D
:1000C0002A00180411241FBECFEFD8E0DEBFCDBF39
:1000D00011E0A0E0B1E0E6E0FAE002C005900D9288
:1000E000A632B107D9F711E0A6E2B1E001C01D9236
:1000F000AB3DB107E1F710E0C4ECD0E004C02297BB
:10010000FE010E94FD04C23CD107C9F70E9474029F
:100110000C9401050C94000040E855E260E070E0AA
:1001200081E391E00E94970360E071E081E391E058
:100130000E94C70461E083E00E94DC0161E084E08A
:100140000E94DC0161E085E00E94DC0160E082E069
:100150000C94DC0166E071E081E391E00E94C70449
:1001600082E00E944B029093270180932601892B05
:1001700061F461E083E00E94150260E084E00E9487
:10018000150260E085E00C94150260E083E00E94B7
:10019000150260E084E00E94150261E085E00E94A3
:1001A00015026AEF70E080E090E00E94520161E089
:1001B00084E00E94150260E085E00E9415026AEF6B
:1001C00070E080E090E00C9452011F920F920FB605
:1001D0000F9211242F933F938F939F93AF93BF93CD
:1001E0008091290190912A01A0912B01B0912C01BD
:1001F0003091280123E0230F2D3720F40196A11D13
:10020000B11D05C026E8230F0296A11DB11D209344
:1002100028018093290190932A01A0932B01B09388
:100220002C0180912D0190912E01A0912F01B09170
:1002300030010196A11DB11D80932D0190932E01D7
:10024000A0932F01B0933001BF91AF919F918F91F7
:100250003F912F910F900FBE0F901F9018953FB7B1
:10026000F89480912D0190912E01A0912F01B091D1
:10027000300126B5A89B05C02F3F19F00196A11D9E
:10028000B11D3FBF6627782F892F9A2F620F711DEE
:10029000811D911D42E0660F771F881F991F4A95A7
:1002A000D1F70895CF92DF92EF92FF92CF93DF9331
:1002B0006B017C010E942F01EB01C114D104E10408
:1002C000F10479F00E942F016C1B7D0B683E734096
:1002D000A0F381E0C81AD108E108F108C851DC4F49
:1002E000ECCFDF91CF91FF90EF90DF90CF9008950A
:1002F000789484B5826084BD84B5816084BD85B501
:10030000826085BD85B5816085BDEEE6F0E08081C7
:1003100081608083E1E8F0E01082808182608083E8
:10032000808181608083E0E8F0E08081816080836B
:10033000E1EBF0E0808184608083E0EBF0E080819D
:1003400081608083EAE7F0E080818460808380813F
:1003500082608083808181608083808180688083E7
:100360001092C1000895833081F028F4813099F013
:100370008230A1F008958630A9F08730B9F084303A
:10038000D1F4809180008F7D03C0809180008F77B1
:1003900080938000089584B58F7702C084B58F7DE7
:1003A00084BD08958091B0008F7703C08091B00024
:1003B0008F7D8093B0000895CF93DF9390E0FC0190
:1003C000E458FF4F2491FC01E057FF4F84918823AC
:1003D00049F190E0880F991FFC01E854FF4FA59167
:1003E000B49182559F4FFC01C591D4919FB7611183
:1003F00008C0F8948C91209582238C938881822365
:100400000AC0623051F4F8948C91322F30958323D6
:100410008C938881822B888304C0F8948C91822BE2
:100420008C939FBFDF91CF9108950F931F93CF932C
:10043000DF931F92CDB7DEB7282F30E0F901E859DE
:10044000FF4F8491F901E458FF4F1491F901E057EF
:10045000FF4F04910023C9F0882321F069830E9493
:10046000B3016981E02FF0E0EE0FFF1FE255FF4F6F
:10047000A591B4919FB7F8948C91611103C0109528
:10048000812301C0812B8C939FBF0F90DF91CF916F
:100490001F910F910895CF93DF93282F30E0F9013A
:1004A000E859FF4F8491F901E458FF4FD491F901C5
:1004B000E057FF4FC491CC2391F081110E94B3010A
:1004C000EC2FF0E0EE0FFF1FEC55FF4FA591B4911C
:1004D0002C912D2381E090E021F480E002C080E0A7
:1004E00090E0DF91CF9108950E9478010E948C00E6
:1004F000C3E5D3E00E94AA002097E1F30E945303D2
:10050000F9CFFC0124853585F901E05CFF4F80813E
:100510009181F901EE5BFF4F20813181821B930BAA
:100520008F7399270895FC0184859585FC01E05C13
:10053000FF4F40815181FC01EE5BFF4F20813181F3
:100540004217530741F00190F081E02DE80FF91FA9
:10055000808190E008958FEF9FEF0895FC018485DE
:100560009585FC01E05CFF4F40815181FC01EE5B11
:10057000FF4F208131814217530779F0A081B1816B
:10058000A80FB91F8C91208131812F5F3F4F2F73AE
:1005900033273183208390E008958FEF9FEF0895F4
:1005A000FC0181A1882329F0A489B5898C9186FF5B
:1005B000FBCF11A20895CF93DF93FC0126853785E9
:1005C000D901A05CBF4F8D919C91119701968F73BB
:1005D0009927E901CE5BDF4F488159818417950740
:1005E000D9F30D90BC91A02DA20FB31F6C93A685DB
:1005F000B785A05CBF4F11969C938E93A689B7894F
:100600002C9181E090E0078C02C0880F991F0A941A
:10061000E2F7282B2C9381E081A30488F589E02D53
:1006200080818064808381E090E0DF91CF910895A4
:1006300008951F920F920FB60F9211242F933F939C
:100640004F938F939F93EF93FF938091C00082FD10
:100650001CC04091C6008091D7019091D8010196AD
:100660008F7399272091D9013091DA01821793076E
:1006700071F0E091D701F091D801E956FE4F408327
:100680009093D8018093D70102C08091C600FF915A
:10069000EF919F918F914F913F912F910F900FBEAE
:1006A0000F901F90189581E391E00E948102892BA1
:1006B00011F00C94180308951F920F920FB60F9229
:1006C00011242F933F938F939F93EF93FF93209148
:1006D0009301309194018091950190919601281792
:1006E000390731F48091C1008F7D8093C10014C01F
:1006F000E0919501F0919601ED5AFE4F2081809195
:1007000095019091960101968F7399279093960188
:10071000809395012093C600FF91EF919F918F9157
:100720003F912F910F900FBE0F901F901895CF9271
:10073000DF92EF92FF92CF93DF93EC016A017B018E
:10074000411581EE580761057105F9F0EC89FD89C5
:1007500081E090E008A002C0880F991F0A94E2F798
:10076000808360E079E08DE390E0A70196010E942C
:10077000D9042150310941095109569547953795BA
:100780002795211580E1380798F0EC89FD891082C2
:1007900060E874E88EE190E0A70196010E94D90418
:1007A00021503109410951095695479537952795AB
:1007B000E889F9893083EA89FB89208319A2EE89C7
:1007C000FF89408181E090E09C010C8C02C0220FE7
:1007D000331F0A94E2F7422B4083EE89FF89408160
:1007E0009C010D8C02C0220F331F0A94E2F7422BAA
:1007F0004083EE89FF8940819C010E8C02C0220F4C
:10080000331F0A94E2F7422B4083EE89FF8920814F
:100810000F8C02C0880F991F0A94E2F780958223FB
:100820008083DF91CF91FF90EF90DF90CF9008957C
:10083000109234011092330188EE93E0A0E0B0E012
:100840008093350190933601A0933701B09338011E
:1008500089E191E0909332018093310187E991E041
:1008600090933E0180933D0183E591E09093400198
:1008700080933F0185EC90E0909342018093410189
:1008800084EC90E0909344018093430180EC90E0ED
:10089000909346018093450181EC90E0909348014C
:1008A0008093470182EC90E090934A018093490144
:1008B00086EC90E090934C0180934B0184E0809310
:1008C0004D0183E080934E0187E080934F0185E0E6
:1008D0008093500181E0809351010895CF92DF927F
:1008E000EF92FF920F931F93CF93DF936C017A01E6
:1008F000EB01E60EF71E00E010E0CE15DF0561F01B
:100900006991D601ED91FC910190F081E02DC60135
:100910000995080F191FF1CFC801DF91CF911F91E1
:100920000F91FF90EF90DF90CF90089561157105C2
:1009300081F0DB010D900020E9F7AD014150510934
:10094000461B570BDC01ED91FC910280F381E02DF9
:10095000099480E090E00895DC01ED91FC91019014
:10096000F081E02D09940F931F93CF93DF93EC0157
:100970006DE00E94AC048C016AE0CE010E94AC04E0
:10098000800F911FDF91CF911F910F9108950F93C9
:100990001F93CF93DF93EC010E9496048C01CE014C
:1009A0000E94B304800F911FDF91CF911F910F918F
:1009B0000895A1E21A2EAA1BBB1BFD010DC0AA1FA0
:1009C000BB1FEE1FFF1FA217B307E407F50720F0B8
:1009D000A21BB30BE40BF50B661F771F881F991F33
:1009E0001A9469F760957095809590959B01AC017C
:1009F000BD01CF010895EE0FFF1F0590F491E02D8A
:060A00000994F894FFCFF9
:100A0600544553544500494E53494445204C4F4F95
:100A1600502E2E2E0000000000DB026E048102AE76
:060A2600029302D0020061
:00000001FF
